{"abi":[{"type":"function","name":"verifySumAt1MbOffsets","inputs":[],"outputs":[],"stateMutability":"view"},{"type":"error","name":"MalformedPdReturnData","inputs":[]}],"bytecode":{"object":"0x6080604052348015600e575f80fd5b506105c18061001c5f395ff3fe608060405234801561000f575f80fd5b5060043610610029575f3560e01c8063e18dcb621461002d575b5f80fd5b610035610037565b005b5f6100406101a4565b90505f81621000006004610054919061036b565b63ffffffff168151811061006b5761006a6103a7565b5b602001015160f81c60f81b60f81c8262100000600361008a919061036b565b63ffffffff16815181106100a1576100a06103a7565b5b602001015160f81c60f81b60f81c836210000060026100c0919061036b565b63ffffffff16815181106100d7576100d66103a7565b5b602001015160f81c60f81b60f81c846210000063ffffffff1681518110610101576101006103a7565b5b602001015160f81c60f81b60f81c855f81518110610122576101216103a7565b5b602001015160f81c60f81b60f81c61013a91906103e0565b61014491906103e0565b61014e91906103e0565b61015891906103e0565b9050602a8160ff16146101a0576040517f08c379a00000000000000000000000000000000000000000000000000000000081526004016101979061046e565b60405180910390fd5b5050565b60606102045f6040516024016101ba91906104ce565b604051602081830303815290604052637cf7a4dd60e01b6020820180517bffffffffffffffffffffffffffffffffffffffffffffffffffffffff8381831617835250505050610209565b905090565b60605f8061050073ffffffffffffffffffffffffffffffffffffffff16846040516102349190610539565b5f60405180830381855afa9150503d805f811461026c576040519150601f19603f3d011682016040523d82523d5f602084013e610271565b606091505b50915091508161028357805160208201fd5b61028c816102cf565b6102c2576040517f7fff8f4c00000000000000000000000000000000000000000000000000000000815260040160405180910390fd5b6040810192505050919050565b5f6040825110156102e2575f905061032a565b5f80602084015191506040840151905060208214610304575f9250505061032a565b604084516103129190610558565b811115610323575f9250505061032a565b6001925050505b919050565b5f63ffffffff82169050919050565b7f4e487b71000000000000000000000000000000000000000000000000000000005f52601160045260245ffd5b5f6103758261032f565b91506103808361032f565b925082820261038e8161032f565b91508082146103a05761039f61033e565b5b5092915050565b7f4e487b71000000000000000000000000000000000000000000000000000000005f52603260045260245ffd5b5f60ff82169050919050565b5f6103ea826103d4565b91506103f5836103d4565b9250828201905060ff81111561040e5761040d61033e565b5b92915050565b5f82825260208201905092915050565b7f504420627974652073756d20213d2034320000000000000000000000000000005f82015250565b5f610458601183610414565b915061046382610424565b602082019050919050565b5f6020820190508181035f8301526104858161044c565b9050919050565b5f819050919050565b5f819050919050565b5f6104b86104b36104ae8461048c565b610495565b6103d4565b9050919050565b6104c88161049e565b82525050565b5f6020820190506104e15f8301846104bf565b92915050565b5f81519050919050565b5f81905092915050565b8281835e5f83830152505050565b5f610513826104e7565b61051d81856104f1565b935061052d8185602086016104fb565b80840191505092915050565b5f6105448284610509565b915081905092915050565b5f819050919050565b5f6105628261054f565b915061056d8361054f565b92508282039050818111156105855761058461033e565b5b9291505056fea2646970667358221220a3eea0c95280bab6c49dbb52d8b928bcfae971b9b53da41d8ad53152e9eb0ad564736f6c634300081a0033","linkReferences":{}},"methodIdentifiers":{"verifySumAt1MbOffsets()":"e18dcb62"},"id":22}