{"abi":[{"type":"function","name":"get_pd_chunks","inputs":[{"name":"args","type":"tuple[]","internalType":"struct PdArgs[]","components":[{"name":"range_index","type":"uint32","internalType":"uint32"},{"name":"offset","type":"uint32","internalType":"uint32"},{"name":"count","type":"uint16","internalType":"uint16"}]}],"outputs":[],"stateMutability":"nonpayable"},{"type":"function","name":"get_storage","inputs":[],"outputs":[{"name":"","type":"bytes32","internalType":"bytes32"}],"stateMutability":"view"},{"type":"function","name":"storageData","inputs":[],"outputs":[{"name":"","type":"bytes32","internalType":"bytes32"}],"stateMutability":"view"},{"type":"event","name":"BytesLog","inputs":[{"name":"data","type":"bytes","indexed":false,"internalType":"bytes"}],"anonymous":false},{"type":"event","name":"CallResult","inputs":[{"name":"success","type":"bool","indexed":false,"internalType":"bool"},{"name":"data","type":"bytes","indexed":false,"internalType":"bytes"}],"anonymous":false},{"type":"event","name":"Log","inputs":[{"name":"","type":"uint256","indexed":false,"internalType":"uint256"}],"anonymous":false}],"bytecode":{"object":"0x6080604052348015600f57600080fd5b506105fa8061001f6000396000f3fe608060405234801561001057600080fd5b50600436106100415760003560e01c8063427568ae14610046578063586fcfeb1461005b578063c0ea4e9d14610076575b600080fd5b6100596100543660046103a6565b61007e565b005b61006460005481565b60405190815260200160405180910390f35b600054610064565b604051600181526000805160206105a58339815191529060200160405180910390a16040518181526000805160206105a58339815191529060200160405180910390a16060600160005b8381101561037e5760008585838181106100e4576100e461041d565b9050606002018036038101906100fa919061044c565b805160208083015160408085015190516002815294955092939092916000805160206105a5833981519152910160405180910390a160405163ffffffff841681526000805160206105a58339815191529060200160405180910390a160405163ffffffff831681526000805160206105a58339815191529060200160405180910390a160405161ffff821681526000805160206105a58339815191529060200160405180910390a1604051600381526000805160206105a58339815191529060200160405180910390a1815b8161ffff168163ffffffff16101561036d576040516001600160e01b031960e086811b8216602084015283901b1660248201526001600160f01b031960f089901b166028820152600090602a0160405160208183030381529060405290506000806105396001600160a01b03168360405161024191906104f6565b600060405180830381855afa9150503d806000811461027c576040519150601f19603f3d011682016040523d82523d6000602084013e610281565b606091505b50915091507f582326e533af48b16567b0565a82550442e225cf8491cb9ae2a29e1f96935e7c828c6040516102b7929190610512565b60405180910390a18161031c5760405162461bcd60e51b8152602060048201526024808201527f6765745f70645f6368756e6b733a206c6f6164696e67206368756e6b732066616044820152631a5b195960e21b606482015260840160405180910390fd5b8a816000815181106103305761033061041d565b602001015160f81c60f81b60405160200161034c92919061054e565b6040516020818303038152906040529a5050505080806001019150506101c6565b5050600190930192506100c8915050565b506045600090815561038f8361057d565b602093840151938101939093525050610539555050565b600080602083850312156103b957600080fd5b823567ffffffffffffffff8111156103d057600080fd5b8301601f810185136103e157600080fd5b803567ffffffffffffffff8111156103f857600080fd5b85602060608302840101111561040d57600080fd5b6020919091019590945092505050565b634e487b7160e01b600052603260045260246000fd5b803563ffffffff8116811461044757600080fd5b919050565b6000606082840312801561045f57600080fd5b600090506040516060810181811067ffffffffffffffff8211171561049257634e487b7160e01b83526041600452602483fd5b60405261049e84610433565b81526104ac60208501610433565b6020820152604084013561ffff811681146104c5578283fd5b6040820152949350505050565b60005b838110156104ed5781810151838201526020016104d5565b50506000910152565b600082516105088184602087016104d2565b9190910192915050565b821515815260406020820152600082518060408401526105398160608501602087016104d2565b601f01601f1916919091016060019392505050565b600083516105608184602088016104d2565b6001600160f81b0319939093169190920190815260010192915050565b8051602080830151919081101561059e576000198160200360031b1b821691505b5091905056fe909c57d5c6ac08245cf2a6de3900e2b868513fa59099b92b27d8db823d92df9ca2646970667358221220ce132ca0a34286e3eea5954053ae470afaa00762d92332612f235c698cbb461564736f6c634300081a0033","linkReferences":{}},"methodIdentifiers":{"get_pd_chunks((uint32,uint32,uint16)[])":"427568ae","get_storage()":"c0ea4e9d","storageData()":"586fcfeb"},"id":21}