{"abi":[{"type":"function","name":"get_storage","inputs":[],"outputs":[{"name":"","type":"bytes","internalType":"bytes"}],"stateMutability":"view"},{"type":"function","name":"read_pd_chunk_into_storage","inputs":[],"outputs":[],"stateMutability":"nonpayable"},{"type":"function","name":"storedData","inputs":[],"outputs":[{"name":"","type":"bytes","internalType":"bytes"}],"stateMutability":"view"}],"bytecode":{"object":"0x6080604052348015600f57600080fd5b5061046e8061001f6000396000f3fe608060405234801561001057600080fd5b50600436106100415760003560e01c80632a1afcd914610046578063c0ea4e9d14610064578063da6d9ab71461006c575b600080fd5b61004e610076565b60405161005b919061028b565b60405180910390f35b61004e610104565b610074610196565b005b60008054610083906102be565b80601f01602080910402602001604051908101604052809291908181526020018280546100af906102be565b80156100fc5780601f106100d1576101008083540402835291602001916100fc565b820191906000526020600020905b8154815290600101906020018083116100df57829003601f168201915b505050505081565b606060008054610113906102be565b80601f016020809104026020016040519081016040528092919081815260200182805461013f906102be565b801561018c5780601f106101615761010080835404028352916020019161018c565b820191906000526020600020905b81548152906001019060200180831161016f57829003601f168201915b5050505050905090565b60405160006020820181905290819081906105399060210160408051601f19818403018152908290526101c8916102f8565b600060405180830381855afa9150503d8060008114610203576040519150601f19603f3d011682016040523d82523d6000602084013e610208565b606091505b5091509150816102555760405162461bcd60e51b81526020600482015260146024820152731c9958591a5b99c8189e5d195cc819985a5b195960621b604482015260640160405180910390fd5b60006102618282610379565b50505050565b60005b8381101561028257818101518382015260200161026a565b50506000910152565b60208152600082518060208401526102aa816040850160208701610267565b601f01601f19169190910160400192915050565b600181811c908216806102d257607f821691505b6020821081036102f257634e487b7160e01b600052602260045260246000fd5b50919050565b6000825161030a818460208701610267565b9190910192915050565b634e487b7160e01b600052604160045260246000fd5b601f82111561037457806000526020600020601f840160051c810160208510156103515750805b601f840160051c820191505b81811015610371576000815560010161035d565b50505b505050565b815167ffffffffffffffff81111561039357610393610314565b6103a7816103a184546102be565b8461032a565b6020601f8211600181146103db57600083156103c35750848201515b600019600385901b1c1916600184901b178455610371565b600084815260208120601f198516915b8281101561040b57878501518255602094850194600190920191016103eb565b50848210156104295786840151600019600387901b60f8161c191681555b50505050600190811b0190555056fea264697066735822122022c3d655277e58398fe0dd48a0d7a3b6824ae7c332c5c8aaa6dbfe40fea430bf64736f6c634300081a0033","linkReferences":{}},"methodIdentifiers":{"get_storage()":"c0ea4e9d","read_pd_chunk_into_storage()":"da6d9ab7","storedData()":"2a1afcd9"},"id":0}