{"abi":[{"type":"function","name":"get_pd_chunks","inputs":[{"name":"ledger_index","type":"uint256","internalType":"uint256"},{"name":"offset","type":"uint256","internalType":"uint256"},{"name":"count","type":"uint256","internalType":"uint256"}],"outputs":[{"name":"","type":"bytes","internalType":"bytes"}],"stateMutability":"view"}],"bytecode":{"object":"0x608080604052346015576101a1908161001a8239f35b5f80fdfe6080806040526004361015610012575f80fd5b5f3560e01c63c965e94a14610025575f80fd5b34610145576060366003190112610145575f8160208293019060043582526024356040820152604435606082015260608152610062608082610149565b51906105395afa3d1561013d573d9067ffffffffffffffff82116101295760405191610098601f8201601f191660200184610149565b82523d5f602084013e5b156100d8576040602091815192839181835280519182918282860152018484015e5f828201840152601f01601f19168101030190f35b60405162461bcd60e51b8152602060048201526024808201527f6765745f70645f6368756e6b733a206c6f6164696e67206368756e6b732066616044820152631a5b195960e21b6064820152608490fd5b634e487b7160e01b5f52604160045260245ffd5b6060906100a2565b5f80fd5b90601f8019910116810190811067ffffffffffffffff8211176101295760405256fea2646970667358221220d97f52bacbb2884dc54b3b8f406889b961fc1c09812d2a993b889f2a664b9f6564736f6c634300081c0033","linkReferences":{}},"methodIdentifiers":{"get_pd_chunks(uint256,uint256,uint256)":"c965e94a"},"id":0}