{"abi":[{"type":"function","name":"getStorage","inputs":[],"outputs":[{"name":"","type":"bytes","internalType":"bytes"}],"stateMutability":"view"},{"type":"function","name":"readPdChunkIntoStorage","inputs":[],"outputs":[],"stateMutability":"nonpayable"},{"type":"function","name":"storedData","inputs":[],"outputs":[{"name":"","type":"bytes","internalType":"bytes"}],"stateMutability":"view"}],"bytecode":{"object":"0x6080604052348015600e575f80fd5b506107ab8061001c5f395ff3fe608060405234801561000f575f80fd5b506004361061003f575f3560e01c80632a1afcd9146100435780633408f73a14610061578063dcaf27c01461007f575b5f80fd5b61004b610089565b60405161005891906102af565b60405180910390f35b610069610114565b60405161007691906102af565b60405180910390f35b6100876101a3565b005b5f8054610095906102fc565b80601f01602080910402602001604051908101604052809291908181526020018280546100c1906102fc565b801561010c5780601f106100e35761010080835404028352916020019161010c565b820191905f5260205f20905b8154815290600101906020018083116100ef57829003601f168201915b505050505081565b60605f8054610122906102fc565b80601f016020809104026020016040519081016040528092919081815260200182805461014e906102fc565b80156101995780601f1061017057610100808354040283529160200191610199565b820191905f5260205f20905b81548152906001019060200180831161017c57829003601f168201915b5050505050905090565b6101ab6101bb565b5f90816101b891906104ff565b50565b606061050073ffffffffffffffffffffffffffffffffffffffff16637cf7a4dd5f6040518263ffffffff1660e01b81526004016101f89190610613565b5f60405180830381865afa158015610212573d5f803e3d5ffd5b505050506040513d5f823e3d601f19601f8201168201806040525081019061023a919061072e565b905090565b5f81519050919050565b5f82825260208201905092915050565b8281835e5f83830152505050565b5f601f19601f8301169050919050565b5f6102818261023f565b61028b8185610249565b935061029b818560208601610259565b6102a481610267565b840191505092915050565b5f6020820190508181035f8301526102c78184610277565b905092915050565b7f4e487b71000000000000000000000000000000000000000000000000000000005f52602260045260245ffd5b5f600282049050600182168061031357607f821691505b602082108103610326576103256102cf565b5b50919050565b7f4e487b71000000000000000000000000000000000000000000000000000000005f52604160045260245ffd5b5f819050815f5260205f209050919050565b5f6020601f8301049050919050565b5f82821b905092915050565b5f600883026103b57fffffffffffffffffffffffffffffffffffffffffffffffffffffffffffffffff8261037a565b6103bf868361037a565b95508019841693508086168417925050509392505050565b5f819050919050565b5f819050919050565b5f6104036103fe6103f9846103d7565b6103e0565b6103d7565b9050919050565b5f819050919050565b61041c836103e9565b6104306104288261040a565b848454610386565b825550505050565b5f90565b610444610438565b61044f818484610413565b505050565b5b81811015610472576104675f8261043c565b600181019050610455565b5050565b601f8211156104b75761048881610359565b6104918461036b565b810160208510156104a0578190505b6104b46104ac8561036b565b830182610454565b50505b505050565b5f82821c905092915050565b5f6104d75f19846008026104bc565b1980831691505092915050565b5f6104ef83836104c8565b9150826002028217905092915050565b6105088261023f565b67ffffffffffffffff8111156105215761052061032c565b5b61052b82546102fc565b610536828285610476565b5f60209050601f831160018114610567575f8415610555578287015190505b61055f85826104e4565b8655506105c6565b601f19841661057586610359565b5f5b8281101561059c57848901518255600182019150602085019450602081019050610577565b868310156105b957848901516105b5601f8916826104c8565b8355505b6001600288020188555050505b505050505050565b5f819050919050565b5f60ff82169050919050565b5f6105fd6105f86105f3846105ce565b6103e0565b6105d7565b9050919050565b61060d816105e3565b82525050565b5f6020820190506106265f830184610604565b92915050565b5f604051905090565b5f80fd5b5f80fd5b5f80fd5b5f80fd5b61064e82610267565b810181811067ffffffffffffffff8211171561066d5761066c61032c565b5b80604052505050565b5f61067f61062c565b905061068b8282610645565b919050565b5f67ffffffffffffffff8211156106aa576106a961032c565b5b6106b382610267565b9050602081019050919050565b5f6106d26106cd84610690565b610676565b9050828152602081018484840111156106ee576106ed610641565b5b6106f9848285610259565b509392505050565b5f82601f8301126107155761071461063d565b5b81516107258482602086016106c0565b91505092915050565b5f6020828403121561074357610742610635565b5b5f82015167ffffffffffffffff8111156107605761075f610639565b5b61076c84828501610701565b9150509291505056fea264697066735822122095ae648313d26272dc7dd7fd3e2368c309f5c978c5bf52cd46987b96724f251364736f6c634300081a0033","linkReferences":{}},"methodIdentifiers":{"getStorage()":"3408f73a","readPdChunkIntoStorage()":"dcaf27c0","storedData()":"2a1afcd9"},"id":22}