{"abi":[{"type":"function","name":"getStorage","inputs":[],"outputs":[{"name":"","type":"bytes","internalType":"bytes"}],"stateMutability":"view"},{"type":"function","name":"readPdChunkIntoStorage","inputs":[],"outputs":[],"stateMutability":"nonpayable"},{"type":"function","name":"storedData","inputs":[],"outputs":[{"name":"","type":"bytes","internalType":"bytes"}],"stateMutability":"view"},{"type":"error","name":"MalformedPdReturnData","inputs":[]}],"bytecode":{"object":"0x6080604052348015600e575f80fd5b506108198061001c5f395ff3fe608060405234801561000f575f80fd5b506004361061003f575f3560e01c80632a1afcd9146100435780633408f73a14610061578063dcaf27c01461007f575b5f80fd5b61004b610089565b60405161005891906103b6565b60405180910390f35b610069610114565b60405161007691906103b6565b60405180910390f35b6100876101a3565b005b5f805461009590610403565b80601f01602080910402602001604051908101604052809291908181526020018280546100c190610403565b801561010c5780601f106100e35761010080835404028352916020019161010c565b820191905f5260205f20905b8154815290600101906020018083116100ef57829003601f168201915b505050505081565b60605f805461012290610403565b80601f016020809104026020016040519081016040528092919081815260200182805461014e90610403565b80156101995780601f1061017057610100808354040283529160200191610199565b820191905f5260205f20905b81548152906001019060200180831161017c57829003601f168201915b5050505050905090565b6101ab6101bb565b5f90816101b89190610606565b50565b606061021b5f6040516024016101d1919061071a565b604051602081830303815290604052637cf7a4dd60e01b6020820180517bffffffffffffffffffffffffffffffffffffffffffffffffffffffff8381831617835250505050610220565b905090565b60605f8061050073ffffffffffffffffffffffffffffffffffffffff168460405161024b919061076d565b5f60405180830381855afa9150503d805f8114610283576040519150601f19603f3d011682016040523d82523d5f602084013e610288565b606091505b50915091508161029a57805160208201fd5b6102a3816102e6565b6102d9576040517f7fff8f4c00000000000000000000000000000000000000000000000000000000815260040160405180910390fd5b6040810192505050919050565b5f6040825110156102f9575f9050610341565b5f8060208401519150604084015190506020821461031b575f92505050610341565b6040845161032991906107b0565b81111561033a575f92505050610341565b6001925050505b919050565b5f81519050919050565b5f82825260208201905092915050565b8281835e5f83830152505050565b5f601f19601f8301169050919050565b5f61038882610346565b6103928185610350565b93506103a2818560208601610360565b6103ab8161036e565b840191505092915050565b5f6020820190508181035f8301526103ce818461037e565b905092915050565b7f4e487b71000000000000000000000000000000000000000000000000000000005f52602260045260245ffd5b5f600282049050600182168061041a57607f821691505b60208210810361042d5761042c6103d6565b5b50919050565b7f4e487b71000000000000000000000000000000000000000000000000000000005f52604160045260245ffd5b5f819050815f5260205f209050919050565b5f6020601f8301049050919050565b5f82821b905092915050565b5f600883026104bc7fffffffffffffffffffffffffffffffffffffffffffffffffffffffffffffffff82610481565b6104c68683610481565b95508019841693508086168417925050509392505050565b5f819050919050565b5f819050919050565b5f61050a610505610500846104de565b6104e7565b6104de565b9050919050565b5f819050919050565b610523836104f0565b61053761052f82610511565b84845461048d565b825550505050565b5f90565b61054b61053f565b61055681848461051a565b505050565b5b818110156105795761056e5f82610543565b60018101905061055c565b5050565b601f8211156105be5761058f81610460565b61059884610472565b810160208510156105a7578190505b6105bb6105b385610472565b83018261055b565b50505b505050565b5f82821c905092915050565b5f6105de5f19846008026105c3565b1980831691505092915050565b5f6105f683836105cf565b9150826002028217905092915050565b61060f82610346565b67ffffffffffffffff81111561062857610627610433565b5b6106328254610403565b61063d82828561057d565b5f60209050601f83116001811461066e575f841561065c578287015190505b61066685826105eb565b8655506106cd565b601f19841661067c86610460565b5f5b828110156106a35784890151825560018201915060208501945060208101905061067e565b868310156106c057848901516106bc601f8916826105cf565b8355505b6001600288020188555050505b505050505050565b5f819050919050565b5f60ff82169050919050565b5f6107046106ff6106fa846106d5565b6104e7565b6106de565b9050919050565b610714816106ea565b82525050565b5f60208201905061072d5f83018461070b565b92915050565b5f81905092915050565b5f61074782610346565b6107518185610733565b9350610761818560208601610360565b80840191505092915050565b5f610778828461073d565b915081905092915050565b7f4e487b71000000000000000000000000000000000000000000000000000000005f52601160045260245ffd5b5f6107ba826104de565b91506107c5836104de565b92508282039050818111156107dd576107dc610783565b5b9291505056fea2646970667358221220e409143f067e122bf77c531c968648754e5ebeac21fae5a80f3e28bfeb94423e64736f6c634300081a0033","linkReferences":{}},"methodIdentifiers":{"getStorage()":"3408f73a","readPdChunkIntoStorage()":"dcaf27c0","storedData()":"2a1afcd9"},"id":23}