{"abi":[{"type":"function","name":"get_pd_chunks","inputs":[{"name":"ledger_index","type":"uint256","internalType":"uint256"},{"name":"offset","type":"uint256","internalType":"uint256"},{"name":"count","type":"uint256","internalType":"uint256"}],"outputs":[{"name":"","type":"bytes","internalType":"bytes"}],"stateMutability":"view"}],"bytecode":{"object":"0x608080604052346015576101a0908161001a8239f35b5f80fdfe6080806040526004361015610012575f80fd5b5f3560e01c63c965e94a14610025575f80fd5b34610144576060366003190112610144575f8160208293019060043582526024356040820152604435606082015260608152610062608082610148565b519060015afa3d1561013c573d9067ffffffffffffffff82116101285760405191610097601f8201601f191660200184610148565b82523d5f602084013e5b156100d7576040602091815192839181835280519182918282860152018484015e5f828201840152601f01601f19168101030190f35b60405162461bcd60e51b8152602060048201526024808201527f6765745f70645f6368756e6b733a206c6f6164696e67206368756e6b732066616044820152631a5b195960e21b6064820152608490fd5b634e487b7160e01b5f52604160045260245ffd5b6060906100a1565b5f80fd5b90601f8019910116810190811067ffffffffffffffff8211176101285760405256fea26469706673582212201cbce42d2d27eed1047fca365f66da2a21330d385ea1f430a1fd304096e58d1c64736f6c634300081c0033","linkReferences":{}},"methodIdentifiers":{"get_pd_chunks(uint256,uint256,uint256)":"c965e94a"},"id":0}