{"abi":[{"type":"constructor","inputs":[{"name":"initialOwner","type":"address","internalType":"address"}],"stateMutability":"nonpayable"},{"type":"function","name":"DOMAIN_SEPARATOR","inputs":[],"outputs":[{"name":"","type":"bytes32","internalType":"bytes32"}],"stateMutability":"view"},{"type":"function","name":"allowance","inputs":[{"name":"owner","type":"address","internalType":"address"},{"name":"spender","type":"address","internalType":"address"}],"outputs":[{"name":"","type":"uint256","internalType":"uint256"}],"stateMutability":"view"},{"type":"function","name":"approve","inputs":[{"name":"spender","type":"address","internalType":"address"},{"name":"value","type":"uint256","internalType":"uint256"}],"outputs":[{"name":"","type":"bool","internalType":"bool"}],"stateMutability":"nonpayable"},{"type":"function","name":"balanceOf","inputs":[{"name":"account","type":"address","internalType":"address"}],"outputs":[{"name":"","type":"uint256","internalType":"uint256"}],"stateMutability":"view"},{"type":"function","name":"burn","inputs":[{"name":"value","type":"uint256","internalType":"uint256"}],"outputs":[],"stateMutability":"nonpayable"},{"type":"function","name":"burnFrom","inputs":[{"name":"account","type":"address","internalType":"address"},{"name":"value","type":"uint256","internalType":"uint256"}],"outputs":[],"stateMutability":"nonpayable"},{"type":"function","name":"decimals","inputs":[],"outputs":[{"name":"","type":"uint8","internalType":"uint8"}],"stateMutability":"view"},{"type":"function","name":"eip712Domain","inputs":[],"outputs":[{"name":"fields","type":"bytes1","internalType":"bytes1"},{"name":"name","type":"string","internalType":"string"},{"name":"version","type":"string","internalType":"string"},{"name":"chainId","type":"uint256","internalType":"uint256"},{"name":"verifyingContract","type":"address","internalType":"address"},{"name":"salt","type":"bytes32","internalType":"bytes32"},{"name":"extensions","type":"uint256[]","internalType":"uint256[]"}],"stateMutability":"view"},{"type":"function","name":"mint","inputs":[{"name":"to","type":"address","internalType":"address"},{"name":"amount","type":"uint256","internalType":"uint256"}],"outputs":[],"stateMutability":"nonpayable"},{"type":"function","name":"name","inputs":[],"outputs":[{"name":"","type":"string","internalType":"string"}],"stateMutability":"view"},{"type":"function","name":"nonces","inputs":[{"name":"owner","type":"address","internalType":"address"}],"outputs":[{"name":"","type":"uint256","internalType":"uint256"}],"stateMutability":"view"},{"type":"function","name":"owner","inputs":[],"outputs":[{"name":"","type":"address","internalType":"address"}],"stateMutability":"view"},{"type":"function","name":"permit","inputs":[{"name":"owner","type":"address","internalType":"address"},{"name":"spender","type":"address","internalType":"address"},{"name":"value","type":"uint256","internalType":"uint256"},{"name":"deadline","type":"uint256","internalType":"uint256"},{"name":"v","type":"uint8","internalType":"uint8"},{"name":"r","type":"bytes32","internalType":"bytes32"},{"name":"s","type":"bytes32","internalType":"bytes32"}],"outputs":[],"stateMutability":"nonpayable"},{"type":"function","name":"renounceOwnership","inputs":[],"outputs":[],"stateMutability":"nonpayable"},{"type":"function","name":"symbol","inputs":[],"outputs":[{"name":"","type":"string","internalType":"string"}],"stateMutability":"view"},{"type":"function","name":"totalSupply","inputs":[],"outputs":[{"name":"","type":"uint256","internalType":"uint256"}],"stateMutability":"view"},{"type":"function","name":"transfer","inputs":[{"name":"to","type":"address","internalType":"address"},{"name":"value","type":"uint256","internalType":"uint256"}],"outputs":[{"name":"","type":"bool","internalType":"bool"}],"stateMutability":"nonpayable"},{"type":"function","name":"transferFrom","inputs":[{"name":"from","type":"address","internalType":"address"},{"name":"to","type":"address","internalType":"address"},{"name":"value","type":"uint256","internalType":"uint256"}],"outputs":[{"name":"","type":"bool","internalType":"bool"}],"stateMutability":"nonpayable"},{"type":"function","name":"transferOwnership","inputs":[{"name":"newOwner","type":"address","internalType":"address"}],"outputs":[],"stateMutability":"nonpayable"},{"type":"event","name":"Approval","inputs":[{"name":"owner","type":"address","indexed":true,"internalType":"address"},{"name":"spender","type":"address","indexed":true,"internalType":"address"},{"name":"value","type":"uint256","indexed":false,"internalType":"uint256"}],"anonymous":false},{"type":"event","name":"EIP712DomainChanged","inputs":[],"anonymous":false},{"type":"event","name":"OwnershipTransferred","inputs":[{"name":"previousOwner","type":"address","indexed":true,"internalType":"address"},{"name":"newOwner","type":"address","indexed":true,"internalType":"address"}],"anonymous":false},{"type":"event","name":"Transfer","inputs":[{"name":"from","type":"address","indexed":true,"internalType":"address"},{"name":"to","type":"address","indexed":true,"internalType":"address"},{"name":"value","type":"uint256","indexed":false,"internalType":"uint256"}],"anonymous":false},{"type":"error","name":"ECDSAInvalidSignature","inputs":[]},{"type":"error","name":"ECDSAInvalidSignatureLength","inputs":[{"name":"length","type":"uint256","internalType":"uint256"}]},{"type":"error","name":"ECDSAInvalidSignatureS","inputs":[{"name":"s","type":"bytes32","internalType":"bytes32"}]},{"type":"error","name":"ERC20InsufficientAllowance","inputs":[{"name":"spender","type":"address","internalType":"address"},{"name":"allowance","type":"uint256","internalType":"uint256"},{"name":"needed","type":"uint256","internalType":"uint256"}]},{"type":"error","name":"ERC20InsufficientBalance","inputs":[{"name":"sender","type":"address","internalType":"address"},{"name":"balance","type":"uint256","internalType":"uint256"},{"name":"needed","type":"uint256","internalType":"uint256"}]},{"type":"error","name":"ERC20InvalidApprover","inputs":[{"name":"approver","type":"address","internalType":"address"}]},{"type":"error","name":"ERC20InvalidReceiver","inputs":[{"name":"receiver","type":"address","internalType":"address"}]},{"type":"error","name":"ERC20InvalidSender","inputs":[{"name":"sender","type":"address","internalType":"address"}]},{"type":"error","name":"ERC20InvalidSpender","inputs":[{"name":"spender","type":"address","internalType":"address"}]},{"type":"error","name":"ERC2612ExpiredSignature","inputs":[{"name":"deadline","type":"uint256","internalType":"uint256"}]},{"type":"error","name":"ERC2612InvalidSigner","inputs":[{"name":"signer","type":"address","internalType":"address"},{"name":"owner","type":"address","internalType":"address"}]},{"type":"error","name":"InvalidAccountNonce","inputs":[{"name":"account","type":"address","internalType":"address"},{"name":"currentNonce","type":"uint256","internalType":"uint256"}]},{"type":"error","name":"InvalidShortString","inputs":[]},{"type":"error","name":"OwnableInvalidOwner","inputs":[{"name":"owner","type":"address","internalType":"address"}]},{"type":"error","name":"OwnableUnauthorizedAccount","inputs":[{"name":"account","type":"address","internalType":"address"}]},{"type":"error","name":"StringTooLong","inputs":[{"name":"str","type":"string","internalType":"string"}]}],"bytecode":{"object":"0x610160604052348015610010575f80fd5b50604051612edd380380612edd83398181016040528101906100329190610771565b6040518060400160405280600981526020017f4972797345524332300000000000000000000000000000000000000000000000815250806040518060400160405280600181526020017f3100000000000000000000000000000000000000000000000000000000000000815250836040518060400160405280600981526020017f49727973455243323000000000000000000000000000000000000000000000008152506040518060400160405280600381526020017f4a54520000000000000000000000000000000000000000000000000000000000815250816003908161011b91906109d6565b50806004908161012b91906109d6565b5050505f73ffffffffffffffffffffffffffffffffffffffff168173ffffffffffffffffffffffffffffffffffffffff160361019e575f6040517f1e4fbdf70000000000000000000000000000000000000000000000000000000081526004016101959190610ab4565b60405180910390fd5b6101ad8161029560201b60201c565b506101c260068361035860201b90919060201c565b61012081815250506101de60078261035860201b90919060201c565b6101408181525050818051906020012060e08181525050808051906020012061010081815250504660a0818152505061021b6103a560201b60201c565b608081815250503073ffffffffffffffffffffffffffffffffffffffff1660c08173ffffffffffffffffffffffffffffffffffffffff168152505050505061028f3361026b6103ff60201b60201c565b600a6102779190610c35565b6127106102849190610c7f565b61040760201b60201c565b50610ed2565b5f60055f9054906101000a900473ffffffffffffffffffffffffffffffffffffffff1690508160055f6101000a81548173ffffffffffffffffffffffffffffffffffffffff021916908373ffffffffffffffffffffffffffffffffffffffff1602179055508173ffffffffffffffffffffffffffffffffffffffff168173ffffffffffffffffffffffffffffffffffffffff167f8be0079c531659141344cd1fd0a4f28419497f9722a3daafe3b4186f6b6457e060405160405180910390a35050565b5f602083511015610379576103728361048c60201b60201c565b905061039f565b82610389836104f160201b60201c565b5f01908161039791906109d6565b5060ff5f1b90505b92915050565b5f7f8b73c3c69bb8fe3d512ecc4cf759cc79239f7b179b0ffacaa9a75d522b39400f60e0516101005146306040516020016103e4959493929190610ce7565b60405160208183030381529060405280519060200120905090565b5f6012905090565b5f73ffffffffffffffffffffffffffffffffffffffff168273ffffffffffffffffffffffffffffffffffffffff1603610477575f6040517fec442f0500000000000000000000000000000000000000000000000000000000815260040161046e9190610ab4565b60405180910390fd5b6104885f83836104fa60201b60201c565b5050565b5f80829050601f815111156104d857826040517f305a27a90000000000000000000000000000000000000000000000000000000081526004016104cf9190610d9e565b60405180910390fd5b8051816104e490610deb565b5f1c175f1b915050919050565b5f819050919050565b5f73ffffffffffffffffffffffffffffffffffffffff168373ffffffffffffffffffffffffffffffffffffffff160361054a578060025f82825461053e9190610e51565b92505081905550610618565b5f805f8573ffffffffffffffffffffffffffffffffffffffff1673ffffffffffffffffffffffffffffffffffffffff1681526020019081526020015f20549050818110156105d3578381836040517fe450d38c0000000000000000000000000000000000000000000000000000000081526004016105ca93929190610e84565b60405180910390fd5b8181035f808673ffffffffffffffffffffffffffffffffffffffff1673ffffffffffffffffffffffffffffffffffffffff1681526020019081526020015f2081905550505b5f73ffffffffffffffffffffffffffffffffffffffff168273ffffffffffffffffffffffffffffffffffffffff160361065f578060025f82825403925050819055506106a9565b805f808473ffffffffffffffffffffffffffffffffffffffff1673ffffffffffffffffffffffffffffffffffffffff1681526020019081526020015f205f82825401925050819055505b8173ffffffffffffffffffffffffffffffffffffffff168373ffffffffffffffffffffffffffffffffffffffff167fddf252ad1be2c89b69c2b068fc378daa952ba7f163c4a11628f55a4df523b3ef836040516107069190610eb9565b60405180910390a3505050565b5f80fd5b5f73ffffffffffffffffffffffffffffffffffffffff82169050919050565b5f61074082610717565b9050919050565b61075081610736565b811461075a575f80fd5b50565b5f8151905061076b81610747565b92915050565b5f6020828403121561078657610785610713565b5b5f6107938482850161075d565b91505092915050565b5f81519050919050565b7f4e487b71000000000000000000000000000000000000000000000000000000005f52604160045260245ffd5b7f4e487b71000000000000000000000000000000000000000000000000000000005f52602260045260245ffd5b5f600282049050600182168061081757607f821691505b60208210810361082a576108296107d3565b5b50919050565b5f819050815f5260205f209050919050565b5f6020601f8301049050919050565b5f82821b905092915050565b5f6008830261088c7fffffffffffffffffffffffffffffffffffffffffffffffffffffffffffffffff82610851565b6108968683610851565b95508019841693508086168417925050509392505050565b5f819050919050565b5f819050919050565b5f6108da6108d56108d0846108ae565b6108b7565b6108ae565b9050919050565b5f819050919050565b6108f3836108c0565b6109076108ff826108e1565b84845461085d565b825550505050565b5f90565b61091b61090f565b6109268184846108ea565b505050565b5b818110156109495761093e5f82610913565b60018101905061092c565b5050565b601f82111561098e5761095f81610830565b61096884610842565b81016020851015610977578190505b61098b61098385610842565b83018261092b565b50505b505050565b5f82821c905092915050565b5f6109ae5f1984600802610993565b1980831691505092915050565b5f6109c6838361099f565b9150826002028217905092915050565b6109df8261079c565b67ffffffffffffffff8111156109f8576109f76107a6565b5b610a028254610800565b610a0d82828561094d565b5f60209050601f831160018114610a3e575f8415610a2c578287015190505b610a3685826109bb565b865550610a9d565b601f198416610a4c86610830565b5f5b82811015610a7357848901518255600182019150602085019450602081019050610a4e565b86831015610a905784890151610a8c601f89168261099f565b8355505b6001600288020188555050505b505050505050565b610aae81610736565b82525050565b5f602082019050610ac75f830184610aa5565b92915050565b7f4e487b71000000000000000000000000000000000000000000000000000000005f52601160045260245ffd5b5f8160011c9050919050565b5f808291508390505b6001851115610b4f57808604811115610b2b57610b2a610acd565b5b6001851615610b3a5780820291505b8081029050610b4885610afa565b9450610b0f565b94509492505050565b5f82610b675760019050610c22565b81610b74575f9050610c22565b8160018114610b8a5760028114610b9457610bc3565b6001915050610c22565b60ff841115610ba657610ba5610acd565b5b8360020a915084821115610bbd57610bbc610acd565b5b50610c22565b5060208310610133831016604e8410600b8410161715610bf85782820a905083811115610bf357610bf2610acd565b5b610c22565b610c058484846001610b06565b92509050818404811115610c1c57610c1b610acd565b5b81810290505b9392505050565b5f60ff82169050919050565b5f610c3f826108ae565b9150610c4a83610c29565b9250610c777fffffffffffffffffffffffffffffffffffffffffffffffffffffffffffffffff8484610b58565b905092915050565b5f610c89826108ae565b9150610c94836108ae565b9250828202610ca2816108ae565b91508282048414831517610cb957610cb8610acd565b5b5092915050565b5f819050919050565b610cd281610cc0565b82525050565b610ce1816108ae565b82525050565b5f60a082019050610cfa5f830188610cc9565b610d076020830187610cc9565b610d146040830186610cc9565b610d216060830185610cd8565b610d2e6080830184610aa5565b9695505050505050565b5f82825260208201905092915050565b8281835e5f83830152505050565b5f601f19601f8301169050919050565b5f610d708261079c565b610d7a8185610d38565b9350610d8a818560208601610d48565b610d9381610d56565b840191505092915050565b5f6020820190508181035f830152610db68184610d66565b905092915050565b5f81519050919050565b5f819050602082019050919050565b5f610de28251610cc0565b80915050919050565b5f610df582610dbe565b82610dff84610dc8565b9050610e0a81610dd7565b92506020821015610e4a57610e457fffffffffffffffffffffffffffffffffffffffffffffffffffffffffffffffff83602003600802610851565b831692505b5050919050565b5f610e5b826108ae565b9150610e66836108ae565b9250828201905080821115610e7e57610e7d610acd565b5b92915050565b5f606082019050610e975f830186610aa5565b610ea46020830185610cd8565b610eb16040830184610cd8565b949350505050565b5f602082019050610ecc5f830184610cd8565b92915050565b60805160a05160c05160e051610100516101205161014051611fba610f235f395f610e5001525f610e1501525f61134901525f61132801525f610acb01525f610b2101525f610b4a0152611fba5ff3fe608060405234801561000f575f80fd5b506004361061011f575f3560e01c8063715018a6116100ab57806395d89b411161006f57806395d89b41146102fb578063a9059cbb14610319578063d505accf14610349578063dd62ed3e14610365578063f2fde38b146103955761011f565b8063715018a61461026357806379cc67901461026d5780637ecebe001461028957806384b0196e146102b95780638da5cb5b146102dd5761011f565b8063313ce567116100f2578063313ce567146101bf5780633644e515146101dd57806340c10f19146101fb57806342966c681461021757806370a08231146102335761011f565b806306fdde0314610123578063095ea7b31461014157806318160ddd1461017157806323b872dd1461018f575b5f80fd5b61012b6103b1565b60405161013891906117ff565b60405180910390f35b61015b600480360381019061015691906118b0565b610441565b6040516101689190611908565b60405180910390f35b610179610463565b6040516101869190611930565b60405180910390f35b6101a960048036038101906101a49190611949565b61046c565b6040516101b69190611908565b60405180910390f35b6101c761049a565b6040516101d491906119b4565b60405180910390f35b6101e56104a2565b6040516101f291906119e5565b60405180910390f35b610215600480360381019061021091906118b0565b6104b0565b005b610231600480360381019061022c91906119fe565b6104c6565b005b61024d60048036038101906102489190611a29565b6104da565b60405161025a9190611930565b60405180910390f35b61026b61051f565b005b610287600480360381019061028291906118b0565b610532565b005b6102a3600480360381019061029e9190611a29565b610552565b6040516102b09190611930565b60405180910390f35b6102c1610563565b6040516102d49796959493929190611b54565b60405180910390f35b6102e5610608565b6040516102f29190611bd6565b60405180910390f35b610303610630565b60405161031091906117ff565b60405180910390f35b610333600480360381019061032e91906118b0565b6106c0565b6040516103409190611908565b60405180910390f35b610363600480360381019061035e9190611c43565b6106e2565b005b61037f600480360381019061037a9190611ce0565b610827565b60405161038c9190611930565b60405180910390f35b6103af60048036038101906103aa9190611a29565b6108a9565b005b6060600380546103c090611d4b565b80601f01602080910402602001604051908101604052809291908181526020018280546103ec90611d4b565b80156104375780601f1061040e57610100808354040283529160200191610437565b820191905f5260205f20905b81548152906001019060200180831161041a57829003601f168201915b5050505050905090565b5f8061044b61092d565b9050610458818585610934565b600191505092915050565b5f600254905090565b5f8061047661092d565b9050610483858285610946565b61048e8585856109d8565b60019150509392505050565b5f6012905090565b5f6104ab610ac8565b905090565b6104b8610b7e565b6104c28282610c05565b5050565b6104d76104d161092d565b82610c84565b50565b5f805f8373ffffffffffffffffffffffffffffffffffffffff1673ffffffffffffffffffffffffffffffffffffffff1681526020019081526020015f20549050919050565b610527610b7e565b6105305f610d03565b565b6105448261053e61092d565b83610946565b61054e8282610c84565b5050565b5f61055c82610dc6565b9050919050565b5f6060805f805f6060610574610e0c565b61057c610e47565b46305f801b5f67ffffffffffffffff81111561059b5761059a611d7b565b5b6040519080825280602002602001820160405280156105c95781602001602082028036833780820191505090505b507f0f00000000000000000000000000000000000000000000000000000000000000959493929190965096509650965096509650965090919293949596565b5f60055f9054906101000a900473ffffffffffffffffffffffffffffffffffffffff16905090565b60606004805461063f90611d4b565b80601f016020809104026020016040519081016040528092919081815260200182805461066b90611d4b565b80156106b65780601f1061068d576101008083540402835291602001916106b6565b820191905f5260205f20905b81548152906001019060200180831161069957829003601f168201915b5050505050905090565b5f806106ca61092d565b90506106d78185856109d8565b600191505092915050565b8342111561072757836040517f6279130200000000000000000000000000000000000000000000000000000000815260040161071e9190611930565b60405180910390fd5b5f7f6e71edae12b1b97f4d1f60370fef10105fa2faae0126114a169c64845d6126c98888886107558c610e82565b8960405160200161076b96959493929190611da8565b6040516020818303038152906040528051906020012090505f61078d82610ed5565b90505f61079c82878787610eee565b90508973ffffffffffffffffffffffffffffffffffffffff168173ffffffffffffffffffffffffffffffffffffffff161461081057808a6040517f4b800e46000000000000000000000000000000000000000000000000000000008152600401610807929190611e07565b60405180910390fd5b61081b8a8a8a610934565b50505050505050505050565b5f60015f8473ffffffffffffffffffffffffffffffffffffffff1673ffffffffffffffffffffffffffffffffffffffff1681526020019081526020015f205f8373ffffffffffffffffffffffffffffffffffffffff1673ffffffffffffffffffffffffffffffffffffffff1681526020019081526020015f2054905092915050565b6108b1610b7e565b5f73ffffffffffffffffffffffffffffffffffffffff168173ffffffffffffffffffffffffffffffffffffffff1603610921575f6040517f1e4fbdf70000000000000000000000000000000000000000000000000000000081526004016109189190611bd6565b60405180910390fd5b61092a81610d03565b50565b5f33905090565b6109418383836001610f1c565b505050565b5f6109518484610827565b90507fffffffffffffffffffffffffffffffffffffffffffffffffffffffffffffffff81146109d257818110156109c3578281836040517ffb8f41b20000000000000000000000000000000000000000000000000000000081526004016109ba93929190611e2e565b60405180910390fd5b6109d184848484035f610f1c565b5b50505050565b5f73ffffffffffffffffffffffffffffffffffffffff168373ffffffffffffffffffffffffffffffffffffffff1603610a48575f6040517f96c6fd1e000000000000000000000000000000000000000000000000000000008152600401610a3f9190611bd6565b60405180910390fd5b5f73ffffffffffffffffffffffffffffffffffffffff168273ffffffffffffffffffffffffffffffffffffffff1603610ab8575f6040517fec442f05000000000000000000000000000000000000000000000000000000008152600401610aaf9190611bd6565b60405180910390fd5b610ac38383836110eb565b505050565b5f7f000000000000000000000000000000000000000000000000000000000000000073ffffffffffffffffffffffffffffffffffffffff163073ffffffffffffffffffffffffffffffffffffffff16148015610b4357507f000000000000000000000000000000000000000000000000000000000000000046145b15610b70577f00000000000000000000000000000000000000000000000000000000000000009050610b7b565b610b78611304565b90505b90565b610b8661092d565b73ffffffffffffffffffffffffffffffffffffffff16610ba4610608565b73ffffffffffffffffffffffffffffffffffffffff1614610c0357610bc761092d565b6040517f118cdaa7000000000000000000000000000000000000000000000000000000008152600401610bfa9190611bd6565b60405180910390fd5b565b5f73ffffffffffffffffffffffffffffffffffffffff168273ffffffffffffffffffffffffffffffffffffffff1603610c75575f6040517fec442f05000000000000000000000000000000000000000000000000000000008152600401610c6c9190611bd6565b60405180910390fd5b610c805f83836110eb565b5050565b5f73ffffffffffffffffffffffffffffffffffffffff168273ffffffffffffffffffffffffffffffffffffffff1603610cf4575f6040517f96c6fd1e000000000000000000000000000000000000000000000000000000008152600401610ceb9190611bd6565b60405180910390fd5b610cff825f836110eb565b5050565b5f60055f9054906101000a900473ffffffffffffffffffffffffffffffffffffffff1690508160055f6101000a81548173ffffffffffffffffffffffffffffffffffffffff021916908373ffffffffffffffffffffffffffffffffffffffff1602179055508173ffffffffffffffffffffffffffffffffffffffff168173ffffffffffffffffffffffffffffffffffffffff167f8be0079c531659141344cd1fd0a4f28419497f9722a3daafe3b4186f6b6457e060405160405180910390a35050565b5f60085f8373ffffffffffffffffffffffffffffffffffffffff1673ffffffffffffffffffffffffffffffffffffffff1681526020019081526020015f20549050919050565b6060610e4260067f000000000000000000000000000000000000000000000000000000000000000061139990919063ffffffff16565b905090565b6060610e7d60077f000000000000000000000000000000000000000000000000000000000000000061139990919063ffffffff16565b905090565b5f60085f8373ffffffffffffffffffffffffffffffffffffffff1673ffffffffffffffffffffffffffffffffffffffff1681526020019081526020015f205f815480929190600101919050559050919050565b5f610ee7610ee1610ac8565b83611446565b9050919050565b5f805f80610efe88888888611486565b925092509250610f0e828261156d565b829350505050949350505050565b5f73ffffffffffffffffffffffffffffffffffffffff168473ffffffffffffffffffffffffffffffffffffffff1603610f8c575f6040517fe602df05000000000000000000000000000000000000000000000000000000008152600401610f839190611bd6565b60405180910390fd5b5f73ffffffffffffffffffffffffffffffffffffffff168373ffffffffffffffffffffffffffffffffffffffff1603610ffc575f6040517f94280d62000000000000000000000000000000000000000000000000000000008152600401610ff39190611bd6565b60405180910390fd5b8160015f8673ffffffffffffffffffffffffffffffffffffffff1673ffffffffffffffffffffffffffffffffffffffff1681526020019081526020015f205f8573ffffffffffffffffffffffffffffffffffffffff1673ffffffffffffffffffffffffffffffffffffffff1681526020019081526020015f208190555080156110e5578273ffffffffffffffffffffffffffffffffffffffff168473ffffffffffffffffffffffffffffffffffffffff167f8c5be1e5ebec7d5bd14f71427d1e84f3dd0314c0f7b2291e5b200ac8c7c3b925846040516110dc9190611930565b60405180910390a35b50505050565b5f73ffffffffffffffffffffffffffffffffffffffff168373ffffffffffffffffffffffffffffffffffffffff160361113b578060025f82825461112f9190611e90565b92505081905550611209565b5f805f8573ffffffffffffffffffffffffffffffffffffffff1673ffffffffffffffffffffffffffffffffffffffff1681526020019081526020015f20549050818110156111c4578381836040517fe450d38c0000000000000000000000000000000000000000000000000000000081526004016111bb93929190611e2e565b60405180910390fd5b8181035f808673ffffffffffffffffffffffffffffffffffffffff1673ffffffffffffffffffffffffffffffffffffffff1681526020019081526020015f2081905550505b5f73ffffffffffffffffffffffffffffffffffffffff168273ffffffffffffffffffffffffffffffffffffffff1603611250578060025f828254039250508190555061129a565b805f808473ffffffffffffffffffffffffffffffffffffffff1673ffffffffffffffffffffffffffffffffffffffff1681526020019081526020015f205f82825401925050819055505b8173ffffffffffffffffffffffffffffffffffffffff168373ffffffffffffffffffffffffffffffffffffffff167fddf252ad1be2c89b69c2b068fc378daa952ba7f163c4a11628f55a4df523b3ef836040516112f79190611930565b60405180910390a3505050565b5f7f8b73c3c69bb8fe3d512ecc4cf759cc79239f7b179b0ffacaa9a75d522b39400f7f00000000000000000000000000000000000000000000000000000000000000007f0000000000000000000000000000000000000000000000000000000000000000463060405160200161137e959493929190611ec3565b60405160208183030381529060405280519060200120905090565b606060ff5f1b83146113b5576113ae836116cf565b9050611440565b8180546113c190611d4b565b80601f01602080910402602001604051908101604052809291908181526020018280546113ed90611d4b565b80156114385780601f1061140f57610100808354040283529160200191611438565b820191905f5260205f20905b81548152906001019060200180831161141b57829003601f168201915b505050505090505b92915050565b5f6040517f190100000000000000000000000000000000000000000000000000000000000081528360028201528260228201526042812091505092915050565b5f805f7f7fffffffffffffffffffffffffffffff5d576e7357a4501ddfe92f46681b20a0845f1c11156114c2575f600385925092509250611563565b5f6001888888886040515f81526020016040526040516114e59493929190611f14565b6020604051602081039080840390855afa158015611505573d5f803e3d5ffd5b5050506020604051035190505f73ffffffffffffffffffffffffffffffffffffffff168173ffffffffffffffffffffffffffffffffffffffff1603611556575f60015f801b93509350935050611563565b805f805f1b935093509350505b9450945094915050565b5f60038111156115805761157f611f57565b5b82600381111561159357611592611f57565b5b03156116cb57600160038111156115ad576115ac611f57565b5b8260038111156115c0576115bf611f57565b5b036115f7576040517ff645eedf00000000000000000000000000000000000000000000000000000000815260040160405180910390fd5b6002600381111561160b5761160a611f57565b5b82600381111561161e5761161d611f57565b5b0361166257805f1c6040517ffce698f70000000000000000000000000000000000000000000000000000000081526004016116599190611930565b60405180910390fd5b60038081111561167557611674611f57565b5b82600381111561168857611687611f57565b5b036116ca57806040517fd78bce0c0000000000000000000000000000000000000000000000000000000081526004016116c191906119e5565b60405180910390fd5b5b5050565b60605f6116db83611741565b90505f602067ffffffffffffffff8111156116f9576116f8611d7b565b5b6040519080825280601f01601f19166020018201604052801561172b5781602001600182028036833780820191505090505b5090508181528360208201528092505050919050565b5f8060ff835f1c169050601f811115611786576040517fb3512b0c00000000000000000000000000000000000000000000000000000000815260040160405180910390fd5b80915050919050565b5f81519050919050565b5f82825260208201905092915050565b8281835e5f83830152505050565b5f601f19601f8301169050919050565b5f6117d18261178f565b6117db8185611799565b93506117eb8185602086016117a9565b6117f4816117b7565b840191505092915050565b5f6020820190508181035f83015261181781846117c7565b905092915050565b5f80fd5b5f73ffffffffffffffffffffffffffffffffffffffff82169050919050565b5f61184c82611823565b9050919050565b61185c81611842565b8114611866575f80fd5b50565b5f8135905061187781611853565b92915050565b5f819050919050565b61188f8161187d565b8114611899575f80fd5b50565b5f813590506118aa81611886565b92915050565b5f80604083850312156118c6576118c561181f565b5b5f6118d385828601611869565b92505060206118e48582860161189c565b9150509250929050565b5f8115159050919050565b611902816118ee565b82525050565b5f60208201905061191b5f8301846118f9565b92915050565b61192a8161187d565b82525050565b5f6020820190506119435f830184611921565b92915050565b5f805f606084860312156119605761195f61181f565b5b5f61196d86828701611869565b935050602061197e86828701611869565b925050604061198f8682870161189c565b9150509250925092565b5f60ff82169050919050565b6119ae81611999565b82525050565b5f6020820190506119c75f8301846119a5565b92915050565b5f819050919050565b6119df816119cd565b82525050565b5f6020820190506119f85f8301846119d6565b92915050565b5f60208284031215611a1357611a1261181f565b5b5f611a208482850161189c565b91505092915050565b5f60208284031215611a3e57611a3d61181f565b5b5f611a4b84828501611869565b91505092915050565b5f7fff0000000000000000000000000000000000000000000000000000000000000082169050919050565b611a8881611a54565b82525050565b611a9781611842565b82525050565b5f81519050919050565b5f82825260208201905092915050565b5f819050602082019050919050565b611acf8161187d565b82525050565b5f611ae08383611ac6565b60208301905092915050565b5f602082019050919050565b5f611b0282611a9d565b611b0c8185611aa7565b9350611b1783611ab7565b805f5b83811015611b47578151611b2e8882611ad5565b9750611b3983611aec565b925050600181019050611b1a565b5085935050505092915050565b5f60e082019050611b675f83018a611a7f565b8181036020830152611b7981896117c7565b90508181036040830152611b8d81886117c7565b9050611b9c6060830187611921565b611ba96080830186611a8e565b611bb660a08301856119d6565b81810360c0830152611bc88184611af8565b905098975050505050505050565b5f602082019050611be95f830184611a8e565b92915050565b611bf881611999565b8114611c02575f80fd5b50565b5f81359050611c1381611bef565b92915050565b611c22816119cd565b8114611c2c575f80fd5b50565b5f81359050611c3d81611c19565b92915050565b5f805f805f805f60e0888a031215611c5e57611c5d61181f565b5b5f611c6b8a828b01611869565b9750506020611c7c8a828b01611869565b9650506040611c8d8a828b0161189c565b9550506060611c9e8a828b0161189c565b9450506080611caf8a828b01611c05565b93505060a0611cc08a828b01611c2f565b92505060c0611cd18a828b01611c2f565b91505092959891949750929550565b5f8060408385031215611cf657611cf561181f565b5b5f611d0385828601611869565b9250506020611d1485828601611869565b9150509250929050565b7f4e487b71000000000000000000000000000000000000000000000000000000005f52602260045260245ffd5b5f6002820490506001821680611d6257607f821691505b602082108103611d7557611d74611d1e565b5b50919050565b7f4e487b71000000000000000000000000000000000000000000000000000000005f52604160045260245ffd5b5f60c082019050611dbb5f8301896119d6565b611dc86020830188611a8e565b611dd56040830187611a8e565b611de26060830186611921565b611def6080830185611921565b611dfc60a0830184611921565b979650505050505050565b5f604082019050611e1a5f830185611a8e565b611e276020830184611a8e565b9392505050565b5f606082019050611e415f830186611a8e565b611e4e6020830185611921565b611e5b6040830184611921565b949350505050565b7f4e487b71000000000000000000000000000000000000000000000000000000005f52601160045260245ffd5b5f611e9a8261187d565b9150611ea58361187d565b9250828201905080821115611ebd57611ebc611e63565b5b92915050565b5f60a082019050611ed65f8301886119d6565b611ee360208301876119d6565b611ef060408301866119d6565b611efd6060830185611921565b611f0a6080830184611a8e565b9695505050505050565b5f608082019050611f275f8301876119d6565b611f3460208301866119a5565b611f4160408301856119d6565b611f4e60608301846119d6565b95945050505050565b7f4e487b71000000000000000000000000000000000000000000000000000000005f52602160045260245ffdfea2646970667358221220065af03576cbf9396851f10285dfca103ac846d8edab0d0c521a9773c7c06fd864736f6c634300081a0033","linkReferences":{}},"methodIdentifiers":{"DOMAIN_SEPARATOR()":"3644e515","allowance(address,address)":"dd62ed3e","approve(address,uint256)":"095ea7b3","balanceOf(address)":"70a08231","burn(uint256)":"42966c68","burnFrom(address,uint256)":"79cc6790","decimals()":"313ce567","eip712Domain()":"84b0196e","mint(address,uint256)":"40c10f19","name()":"06fdde03","nonces(address)":"7ecebe00","owner()":"8da5cb5b","permit(address,address,uint256,uint256,uint8,bytes32,bytes32)":"d505accf","renounceOwnership()":"715018a6","symbol()":"95d89b41","totalSupply()":"18160ddd","transfer(address,uint256)":"a9059cbb","transferFrom(address,address,uint256)":"23b872dd","transferOwnership(address)":"f2fde38b"},"id":20}