{"abi":[{"type":"function","name":"get","inputs":[],"outputs":[{"name":"","type":"uint256","internalType":"uint256"}],"stateMutability":"view"},{"type":"function","name":"set","inputs":[{"name":"value","type":"uint256","internalType":"uint256"}],"outputs":[],"stateMutability":"nonpayable"},{"type":"function","name":"storedData","inputs":[],"outputs":[{"name":"","type":"uint256","internalType":"uint256"}],"stateMutability":"view"},{"type":"event","name":"Log","inputs":[{"name":"","type":"uint256","indexed":false,"internalType":"uint256"}],"anonymous":false}],"bytecode":{"object":"0x6080604052348015600f57600080fd5b5060f98061001e6000396000f3fe6080604052348015600f57600080fd5b5060043610603c5760003560e01c80632a1afcd914604157806360fe47b114605b5780636d4ce63c14606c575b600080fd5b604960005481565b60405190815260200160405180910390f35b606a606636600460ab565b6073565b005b6000546049565b6040518181527f909c57d5c6ac08245cf2a6de3900e2b868513fa59099b92b27d8db823d92df9c9060200160405180910390a1600055565b60006020828403121560bc57600080fd5b503591905056fea26469706673582212208f7b2a9b79849bb51f9dd5ecd08299d822051c5299ff51f97ebf572e49ab9c5564736f6c634300081a0033","linkReferences":{}},"methodIdentifiers":{"get()":"6d4ce63c","set(uint256)":"60fe47b1","storedData()":"2a1afcd9"},"id":22}